{
  "transactions": [
    {
      "hash": "0xdbe3e070470ef15754002c2c8337cb880928bb41b9f3d37224451cc119d9f8cd",
      "transactionType": "CALL",
      "contractName": null,
      "contractAddress": "0xFA07c2B82E82de8Ce888C61f7e14ca088684b075",
      "function": "setCollateralCapUsd(address,uint256)",
      "arguments": [
        "0x2CF49D4a02Cd7BE6903150Da15d339AA5d127168",
        "1000000000000000000000000"
      ],
      "transaction": {
        "type": "0x02",
        "from": "0xcd7db26abcf756244b26131f3852913e30a55b0a",
        "to": "0xfa07c2b82e82de8ce888c61f7e14ca088684b075",
        "gas": "0x3a30f",
        "value": "0x0",
        "data": "0x39b337590000000000000000000000002cf49d4a02cd7be6903150da15d339aa5d12716800000000000000000000000000000000000000000000d3c21bcecceda1000000",
        "nonce": "0x45c",
        "accessList": []
      },
      "additionalContracts": [],
      "isFixedGasLimit": false
    }
  ],
  "receipts": [
    {
      "transactionHash": "0xdbe3e070470ef15754002c2c8337cb880928bb41b9f3d37224451cc119d9f8cd",
      "transactionIndex": "0x1",
      "blockHash": "0x6553cff3dac4d104f93ad0809383cf9b9a7703b8fef3f511a225cfda61daf0a0",
      "blockNumber": "0xb20da5",
      "from": "0xcd7DB26aBcF756244b26131f3852913E30A55b0A",
      "to": "0xFA07c2B82E82de8Ce888C61f7e14ca088684b075",
      "cumulativeGasUsed": "0x2793e",
      "gasUsed": "0x2793e",
      "contractAddress": null,
      "logs": [],
      "status": "0x1",
      "logsBloom": "0x00000000000000000000000000000000000000000000000000000000000000000000000000000000000000000000000000000000000000000000000000000000000000000000000000000000000000000000000000000000000000000000000000000000000000000000000000000000000000000000000000000000000000000000000000000000000000000000000000000000000000000000000000000000000000000000000000000000000000000000000000000000000000000000000000000000000000000000000000000000000000000000000000000000000000000000000000000000000000000000000000000000000000000000000000000000",
      "type": "0x2",
      "effectiveGasPrice": "0x5f5e100"
    }
  ],
  "libraries": [],
  "pending": [],
  "returns": {},
  "timestamp": 1707053246,
  "chain": 421614,
  "multi": false,
  "commit": "3399d89"
}